{
  "contractName": "TransferSkills",
  "abi": [
    {
      "constant": true,
      "inputs": [
        {
          "name": "",
          "type": "address"
        },
        {
          "name": "",
          "type": "uint256"
        }
      ],
      "name": "hashesIPFS",
      "outputs": [
        {
          "name": "from",
          "type": "address"
        },
        {
          "name": "hash",
          "type": "string"
        },
        {
          "name": "time",
          "type": "uint256"
        }
      ],
      "payable": false,
      "stateMutability": "view",
      "type": "function"
    },
    {
      "constant": true,
      "inputs": [
        {
          "name": "",
          "type": "address"
        }
      ],
      "name": "last_hash_index",
      "outputs": [
        {
          "name": "",
          "type": "uint256"
        }
      ],
      "payable": false,
      "stateMutability": "view",
      "type": "function"
    },
    {
      "constant": true,
      "inputs": [
        {
          "name": "",
          "type": "address"
        }
      ],
      "name": "last_msg_index",
      "outputs": [
        {
          "name": "",
          "type": "uint256"
        }
      ],
      "payable": false,
      "stateMutability": "view",
      "type": "function"
    },
    {
      "constant": true,
      "inputs": [
        {
          "name": "",
          "type": "address"
        },
        {
          "name": "",
          "type": "uint256"
        }
      ],
      "name": "messages",
      "outputs": [
        {
          "name": "from",
          "type": "address"
        },
        {
          "name": "text",
          "type": "string"
        },
        {
          "name": "time",
          "type": "uint256"
        }
      ],
      "payable": false,
      "stateMutability": "view",
      "type": "function"
    },
    {
      "anonymous": false,
      "inputs": [
        {
          "indexed": true,
          "name": "_sender",
          "type": "address"
        },
        {
          "indexed": true,
          "name": "_botAddress",
          "type": "address"
        },
        {
          "indexed": false,
          "name": "_time",
          "type": "uint256"
        },
        {
          "indexed": false,
          "name": "message",
          "type": "string"
        }
      ],
      "name": "Message",
      "type": "event"
    },
    {
      "anonymous": false,
      "inputs": [
        {
          "indexed": true,
          "name": "_sender",
          "type": "address"
        },
        {
          "indexed": true,
          "name": "_botAddress",
          "type": "address"
        },
        {
          "indexed": false,
          "name": "_time",
          "type": "uint256"
        },
        {
          "indexed": false,
          "name": "hashIPFS",
          "type": "string"
        }
      ],
      "name": "HashIPFS",
      "type": "event"
    },
    {
      "constant": false,
      "inputs": [
        {
          "name": "_botAddress",
          "type": "address"
        },
        {
          "name": "_text",
          "type": "string"
        }
      ],
      "name": "sendMessage",
      "outputs": [],
      "payable": false,
      "stateMutability": "nonpayable",
      "type": "function"
    },
    {
      "constant": true,
      "inputs": [
        {
          "name": "_botAddress",
          "type": "address"
        },
        {
          "name": "_index",
          "type": "uint256"
        }
      ],
      "name": "newMessage",
      "outputs": [
        {
          "name": "",
          "type": "bool"
        }
      ],
      "payable": false,
      "stateMutability": "view",
      "type": "function"
    },
    {
      "constant": true,
      "inputs": [
        {
          "name": "_botAddress",
          "type": "address"
        }
      ],
      "name": "lastIndex",
      "outputs": [
        {
          "name": "",
          "type": "uint256"
        }
      ],
      "payable": false,
      "stateMutability": "view",
      "type": "function"
    },
    {
      "constant": true,
      "inputs": [
        {
          "name": "_botAddress",
          "type": "address"
        }
      ],
      "name": "getLastMessage",
      "outputs": [
        {
          "name": "",
          "type": "address"
        },
        {
          "name": "",
          "type": "string"
        },
        {
          "name": "",
          "type": "uint256"
        }
      ],
      "payable": false,
      "stateMutability": "view",
      "type": "function"
    },
    {
      "constant": true,
      "inputs": [
        {
          "name": "_botAddress",
          "type": "address"
        },
        {
          "name": "_index",
          "type": "uint256"
        }
      ],
      "name": "getMessageByIndex",
      "outputs": [
        {
          "name": "",
          "type": "address"
        },
        {
          "name": "",
          "type": "string"
        },
        {
          "name": "",
          "type": "uint256"
        }
      ],
      "payable": false,
      "stateMutability": "view",
      "type": "function"
    },
    {
      "constant": false,
      "inputs": [
        {
          "name": "_botAddress",
          "type": "address"
        },
        {
          "name": "_hash",
          "type": "string"
        }
      ],
      "name": "sendIPFSFile",
      "outputs": [],
      "payable": false,
      "stateMutability": "nonpayable",
      "type": "function"
    }
  ],
  "bytecode": "0x608060405234801561001057600080fd5b50611652806100206000396000f3fe608060405234801561001057600080fd5b506004361061009e5760003560e01c80634e6bd1c0116100665780634e6bd1c014610395578063c45d9bea14610496578063de6f24bb14610597578063e0c01bfe14610672578063edc8f0d8146107695761009e565b806307678ce9146100a357806312e23149146101a45780631b6e23ea146101fc57806329ea32f5146102545780634d15a9bb1461032f575b600080fd5b6100ef600480360360408110156100b957600080fd5b81019080803573ffffffffffffffffffffffffffffffffffffffff169060200190929190803590602001909291905050506107c1565b604051808473ffffffffffffffffffffffffffffffffffffffff1673ffffffffffffffffffffffffffffffffffffffff16815260200180602001838152602001828103825284818151815260200191508051906020019080838360005b8381101561016757808201518184015260208101905061014c565b50505050905090810190601f1680156101945780820380516001836020036101000a031916815260200191505b5094505050505060405180910390f35b6101e6600480360360208110156101ba57600080fd5b81019080803573ffffffffffffffffffffffffffffffffffffffff1690602001909291905050506108b0565b6040518082815260200191505060405180910390f35b61023e6004803603602081101561021257600080fd5b81019080803573ffffffffffffffffffffffffffffffffffffffff1690602001909291905050506108c8565b6040518082815260200191505060405180910390f35b61032d6004803603604081101561026a57600080fd5b81019080803573ffffffffffffffffffffffffffffffffffffffff169060200190929190803590602001906401000000008111156102a757600080fd5b8201836020820111156102b957600080fd5b803590602001918460018302840111640100000000831117156102db57600080fd5b91908080601f016020809104026020016040519081016040528093929190818152602001838380828437600081840152601f19601f8201169050808301925050505050505091929192905050506108e0565b005b61037b6004803603604081101561034557600080fd5b81019080803573ffffffffffffffffffffffffffffffffffffffff16906020019092919080359060200190929190505050610c10565b604051808215151515815260200191505060405180910390f35b6103e1600480360360408110156103ab57600080fd5b81019080803573ffffffffffffffffffffffffffffffffffffffff16906020019092919080359060200190929190505050610c70565b604051808473ffffffffffffffffffffffffffffffffffffffff1673ffffffffffffffffffffffffffffffffffffffff16815260200180602001838152602001828103825284818151815260200191508051906020019080838360005b8381101561045957808201518184015260208101905061043e565b50505050905090810190601f1680156104865780820380516001836020036101000a031916815260200191505b5094505050505060405180910390f35b6104e2600480360360408110156104ac57600080fd5b81019080803573ffffffffffffffffffffffffffffffffffffffff16906020019092919080359060200190929190505050610e43565b604051808473ffffffffffffffffffffffffffffffffffffffff1673ffffffffffffffffffffffffffffffffffffffff16815260200180602001838152602001828103825284818151815260200191508051906020019080838360005b8381101561055a57808201518184015260208101905061053f565b50505050905090810190601f1680156105875780820380516001836020036101000a031916815260200191505b5094505050505060405180910390f35b610670600480360360408110156105ad57600080fd5b81019080803573ffffffffffffffffffffffffffffffffffffffff169060200190929190803590602001906401000000008111156105ea57600080fd5b8201836020820111156105fc57600080fd5b8035906020019184600183028401116401000000008311171561061e57600080fd5b91908080601f016020809104026020016040519081016040528093929190818152602001838380828437600081840152601f19601f820116905080830192505050505050509192919290505050610f32565b005b6106b46004803603602081101561068857600080fd5b81019080803573ffffffffffffffffffffffffffffffffffffffff169060200190929190505050611262565b604051808473ffffffffffffffffffffffffffffffffffffffff1673ffffffffffffffffffffffffffffffffffffffff16815260200180602001838152602001828103825284818151815260200191508051906020019080838360005b8381101561072c578082015181840152602081019050610711565b50505050905090810190601f1680156107595780820380516001836020036101000a031916815260200191505b5094505050505060405180910390f35b6107ab6004803603602081101561077f57600080fd5b81019080803573ffffffffffffffffffffffffffffffffffffffff169060200190929190505050611539565b6040518082815260200191505060405180910390f35b6003602052816000526040600020602052806000526040600020600091509150508060000160009054906101000a900473ffffffffffffffffffffffffffffffffffffffff1690806001018054600181600116156101000203166002900480601f0160208091040260200160405190810160405280929190818152602001828054600181600116156101000203166002900480156108a05780601f10610875576101008083540402835291602001916108a0565b820191906000526020600020905b81548152906001019060200180831161088357829003601f168201915b5050505050908060020154905083565b60016020528060005260406000206000915090505481565b60006020528060005260406000206000915090505481565b33600360008473ffffffffffffffffffffffffffffffffffffffff1673ffffffffffffffffffffffffffffffffffffffff16815260200190815260200160002060008060008673ffffffffffffffffffffffffffffffffffffffff1673ffffffffffffffffffffffffffffffffffffffff16815260200190815260200160002054815260200190815260200160002060000160006101000a81548173ffffffffffffffffffffffffffffffffffffffff021916908373ffffffffffffffffffffffffffffffffffffffff16021790555080600360008473ffffffffffffffffffffffffffffffffffffffff1673ffffffffffffffffffffffffffffffffffffffff16815260200190815260200160002060008060008673ffffffffffffffffffffffffffffffffffffffff1673ffffffffffffffffffffffffffffffffffffffff1681526020019081526020016000205481526020019081526020016000206001019080519060200190610a55929190611581565b5042600360008473ffffffffffffffffffffffffffffffffffffffff1673ffffffffffffffffffffffffffffffffffffffff16815260200190815260200160002060008060008673ffffffffffffffffffffffffffffffffffffffff1673ffffffffffffffffffffffffffffffffffffffff16815260200190815260200160002054815260200190815260200160002060020181905550600160008373ffffffffffffffffffffffffffffffffffffffff1673ffffffffffffffffffffffffffffffffffffffff168152602001908152602001600020600081548092919060010191905055508173ffffffffffffffffffffffffffffffffffffffff163373ffffffffffffffffffffffffffffffffffffffff167e6627f9d958b9c73f152ab2c378cf870c8cb149b872c93043c172e160deeaab42846040518083815260200180602001828103825283818151815260200191508051906020019080838360005b83811015610bd1578082015181840152602081019050610bb6565b50505050905090810190601f168015610bfe5780820380516001836020036101000a031916815260200191505b50935050505060405180910390a35050565b600042600260008573ffffffffffffffffffffffffffffffffffffffff1673ffffffffffffffffffffffffffffffffffffffff16815260200190815260200160002060008481526020019081526020016000206002015411905092915050565b600060606000600260008673ffffffffffffffffffffffffffffffffffffffff1673ffffffffffffffffffffffffffffffffffffffff168152602001908152602001600020600060018603815260200190815260200160002060000160009054906101000a900473ffffffffffffffffffffffffffffffffffffffff16600260008773ffffffffffffffffffffffffffffffffffffffff1673ffffffffffffffffffffffffffffffffffffffff1681526020019081526020016000206000600187038152602001908152602001600020600101600260008873ffffffffffffffffffffffffffffffffffffffff1673ffffffffffffffffffffffffffffffffffffffff168152602001908152602001600020600060018803815260200190815260200160002060020154818054600181600116156101000203166002900480601f016020809104026020016040519081016040528092919081815260200182805460018160011615610100020316600290048015610e2f5780601f10610e0457610100808354040283529160200191610e2f565b820191906000526020600020905b815481529060010190602001808311610e1257829003601f168201915b505050505091509250925092509250925092565b6002602052816000526040600020602052806000526040600020600091509150508060000160009054906101000a900473ffffffffffffffffffffffffffffffffffffffff1690806001018054600181600116156101000203166002900480601f016020809104026020016040519081016040528092919081815260200182805460018160011615610100020316600290048015610f225780601f10610ef757610100808354040283529160200191610f22565b820191906000526020600020905b815481529060010190602001808311610f0557829003601f168201915b5050505050908060020154905083565b33600260008473ffffffffffffffffffffffffffffffffffffffff1673ffffffffffffffffffffffffffffffffffffffff16815260200190815260200160002060008060008673ffffffffffffffffffffffffffffffffffffffff1673ffffffffffffffffffffffffffffffffffffffff16815260200190815260200160002054815260200190815260200160002060000160006101000a81548173ffffffffffffffffffffffffffffffffffffffff021916908373ffffffffffffffffffffffffffffffffffffffff16021790555080600260008473ffffffffffffffffffffffffffffffffffffffff1673ffffffffffffffffffffffffffffffffffffffff16815260200190815260200160002060008060008673ffffffffffffffffffffffffffffffffffffffff1673ffffffffffffffffffffffffffffffffffffffff16815260200190815260200160002054815260200190815260200160002060010190805190602001906110a7929190611581565b5042600260008473ffffffffffffffffffffffffffffffffffffffff1673ffffffffffffffffffffffffffffffffffffffff16815260200190815260200160002060008060008673ffffffffffffffffffffffffffffffffffffffff1673ffffffffffffffffffffffffffffffffffffffff168152602001908152602001600020548152602001908152602001600020600201819055506000808373ffffffffffffffffffffffffffffffffffffffff1673ffffffffffffffffffffffffffffffffffffffff168152602001908152602001600020600081548092919060010191905055508173ffffffffffffffffffffffffffffffffffffffff163373ffffffffffffffffffffffffffffffffffffffff167fdd99aef5e4fdfad84059320be40f5dc0f015dc4025f56bd4010608c6743bc22e42846040518083815260200180602001828103825283818151815260200191508051906020019080838360005b83811015611223578082015181840152602081019050611208565b50505050905090810190601f1680156112505780820380516001836020036101000a031916815260200191505b50935050505060405180910390a35050565b600060606000806000808673ffffffffffffffffffffffffffffffffffffffff1673ffffffffffffffffffffffffffffffffffffffff16815260200190815260200160002054116112b257600080fd5b600260008573ffffffffffffffffffffffffffffffffffffffff1673ffffffffffffffffffffffffffffffffffffffff168152602001908152602001600020600060016000808873ffffffffffffffffffffffffffffffffffffffff1673ffffffffffffffffffffffffffffffffffffffff1681526020019081526020016000205403815260200190815260200160002060000160009054906101000a900473ffffffffffffffffffffffffffffffffffffffff16600260008673ffffffffffffffffffffffffffffffffffffffff1673ffffffffffffffffffffffffffffffffffffffff168152602001908152602001600020600060016000808973ffffffffffffffffffffffffffffffffffffffff1673ffffffffffffffffffffffffffffffffffffffff16815260200190815260200160002054038152602001908152602001600020600101600260008773ffffffffffffffffffffffffffffffffffffffff1673ffffffffffffffffffffffffffffffffffffffff168152602001908152602001600020600060016000808a73ffffffffffffffffffffffffffffffffffffffff1673ffffffffffffffffffffffffffffffffffffffff1681526020019081526020016000205403815260200190815260200160002060020154818054600181600116156101000203166002900480601f0160208091040260200160405190810160405280929190818152602001828054600181600116156101000203166002900480156115255780601f106114fa57610100808354040283529160200191611525565b820191906000526020600020905b81548152906001019060200180831161150857829003601f168201915b505050505091509250925092509193909250565b60008060008373ffffffffffffffffffffffffffffffffffffffff1673ffffffffffffffffffffffffffffffffffffffff168152602001908152602001600020549050919050565b828054600181600116156101000203166002900490600052602060002090601f016020900481019282601f106115c257805160ff19168380011785556115f0565b828001600101855582156115f0579182015b828111156115ef5782518255916020019190600101906115d4565b5b5090506115fd9190611601565b5090565b61162391905b8082111561161f576000816000905550600101611607565b5090565b9056fea165627a7a723058208fe872f2caab16cacd58af117c60c70918445c6fcd0125a44a876d581d4903860029",
  "source": "// Solidiy varsion allowed by the compiler.\n// Smart Contract TransferSkills written and compiled using Truffle\n//\n// v 0.1. on 10.23.2019\n//\npragma solidity >=0.4.21 <0.6.0;\n\ncontract TransferSkills {\n  // Struct  is intended to define a new type of structure or variable type\n  struct message {\n    address from;\n    string  text;\n    uint256 time;\n  }\n\n  // A very similar structure for the hashIPFS\n  struct hashIPFS {\n    address from;\n    string hash;\n    uint256 time;\n  }\n\n  // the event allows to make public and available the Message and the HashIPFS using RPC commands\n  event Message(address indexed _sender, address indexed _botAddress, uint256 _time, string message);\n  event HashIPFS(address indexed _sender, address indexed _botAddress, uint256 _time, string hashIPFS);\n\n  // We define 3 mapping, one between an addresss and an integer for indexing the messages\n  //and another one for mapping the address and the messages. \n  mapping (address => uint256) public last_msg_index;\n  mapping (address => uint256) public last_hash_index;\n  mapping (address => mapping (uint256 => message)) public messages;\n  mapping (address => mapping (uint256 => hashIPFS)) public hashesIPFS;\n\n  // A function for sending a message to the bot. Where the mapping are used to store \n  // the variables from, text and time in a message struct.\n  function sendMessage(address _botAddress, string memory _text) public  {\n    messages[_botAddress][last_msg_index[_botAddress]].from = msg.sender;\n    messages[_botAddress][last_msg_index[_botAddress]].text = _text;\n    messages[_botAddress][last_msg_index[_botAddress]].time = now;\n    last_msg_index[_botAddress]++;\n    emit Message(msg.sender, _botAddress, now, _text);\n  }\n\n  // A funtion that returns a true or false. It checks in the messages mapping if there \n  // is a new message for the bot address. \n  function newMessage(address _botAddress, uint256 _index) view public returns (bool) {\n    return messages[_botAddress][_index].time  > now;\n  }\n\n  // Return the last index of the mapping. This is, the index of the last message received. \n  function lastIndex(address _botAddress) view public returns (uint256) {\n    return last_msg_index[_botAddress];\n  }\n\n  // This function returns the last message received by the bot addess\n  function getLastMessage(address _botAddress) view  public returns (address, string memory, uint256) {\n    require(last_msg_index[_botAddress] > 0);\n    return (messages[_botAddress][last_msg_index[_botAddress] - 1].from, messages[_botAddress][last_msg_index[_botAddress] - 1].text, messages[_botAddress][last_msg_index[_botAddress] - 1].time);\n  }\n  // This function returns a message received by the bot addess accesed by an index\n  function getMessageByIndex(address _botAddress, uint256 _index) view public returns (address, string memory, uint256) {\n    return (messages[_botAddress][_index - 1].from, messages[_botAddress][_index - 1].text, messages[_botAddress][_index - 1].time);\n  }\n\n  // Similarly to sendMessage, this function sends a hash string to the bot\n  function sendIPFSFile(address _botAddress, string memory _hash) public  {\n    hashesIPFS[_botAddress][last_msg_index[_botAddress]].from = msg.sender;\n    hashesIPFS[_botAddress][last_msg_index[_botAddress]].hash = _hash;\n    hashesIPFS[_botAddress][last_msg_index[_botAddress]].time = now;\n    last_hash_index[_botAddress]++;\n    emit HashIPFS(msg.sender, _botAddress, now, _hash);\n  }\n\n}",
  "sourcePath": "/home/jacg/transfer-skills-project/contracts/TransferSkills.sol",
  "compiler": {
    "name": "solc",
    "version": "0.5.8+commit.23d335f2.Emscripten.clang"
  },
  "schemaVersion": "3.0.16",
  "updatedAt": "2019-10-25T22:06:44.510Z",
  "devdoc": {
    "methods": {}
  },
  "userdoc": {
    "methods": {}
  }
}